:100000000C94B5000C9425040C94FE030C94DD00B4
:100010000C94DD000C94DD000C94DD000C94DD00EC
:100020000C94DD000C94DD000C94DD000C94A40411
:100030000C94DD000C94DD000C94DD000C94DD00CC
:100040000C94B4030C94DD000C9472040C944C04D6
:100050000C94DD000C94DD000C94DD000C94DD00AC
:100060000C94DD000C94DD00206368616E6765739D
:100070003D0073746174653D007072657373204454
:100080003220746F2061726D2F64697361726D3BF1
:100090002070756C6C204434206C6F7720746F2056
:1000A0007472696767657220616C61726D00626568
:1000B00061636F6E20636F6E74726F6C6C6572201B
:1000C000626F6F7400627574746F6E5F75733D005C
:1000D0002073656E736F723D0020627574746F6E6D
:1000E0003D002070776D3D0020616E616C6F673D53
:1000F000002073746174653D002075733D002074A9
:10010000696D6572315F6D733D006D733D00000078
:100110000000240027002A0000000000250028001D
:100120002B00000000002300260029000404040422
:100130000404040402020202020203030303030391
:10014000010204081020408001020408102001026E
:10015000040810200000000800020100000304074A
:100160000000000000000000D70711241FBECFEFE1
:10017000D8E0DEBFCDBF11E0A0E0B1E0E8EBF0E1F8
:1001800002C005900D92AC33B107D9F722E0ACE381
:10019000B1E001C01D92A930B207E1F710E0C5EB54
:1001A000D0E004C02197FE010E945408C43BD1074F
:1001B000C9F70E94C9040C945A080C9400008330BB
:1001C00081F028F4813099F08230A9F008958730C9
:1001D000A9F08830C9F08430B1F4809180008F7D1F
:1001E00003C0809180008F7780938000089584B54C
:1001F0008F7784BD089584B58F7DFBCF8091B0004B
:100200008F778093B00008958091B0008F7DF9CFF3
:10021000CF93DF93282F30E0F901EC5AFE4F849101
:10022000F901E05CFE4FD491F901E45DFE4FC49109
:10023000CC23A1F081110E94DF00EC2FF0E0EE0F43
:10024000FF1FEE5DFE4FA591B491EC91ED2381E08F
:1002500090E009F480E0DF91CF91089580E090E094
:10026000FACF1F93CF93DF93282F30E0F901EC5A98
:10027000FE4F8491F901E05CFE4FD491F901E45DF9
:10028000FE4FC491CC23A9F0162F81110E94DF00EC
:10029000EC2FF0E0EE0FFF1FE85EFE4FA591B4914A
:1002A0008FB7F894EC91111108C0D095DE23DC9340
:1002B0008FBFDF91CF911F910895DE2BF8CFCF93A1
:1002C000DF9390E0FC01E05CFE4F2491845D9E4F43
:1002D000FC0184918823D1F090E0880F991FFC01E4
:1002E000E25FFE4FA591B491FC01E85EFE4FC5911F
:1002F000D491623071F49FB7F8943C91822F80952D
:1003000083238C93E8812E2B28839FBFDF91CF918D
:1003100008958FB7F894EC912E2B2C938FBFF6CFC6
:100320003FB7F8948091680190916901A0916A01AA
:10033000B0916B0126B5A89B05C02F3F19F001961F
:10034000A11DB11D3FBFBA2FA92F982F8827BC012F
:10035000CD01620F711D811D911D42E0660F771F57
:10036000881F991F4A95D1F708952FB7F894609187
:1003700064017091650180916601909167012FBFC2
:1003800008950E9490016093440170934501809309
:1003900046019093470181E08093480108950895B4
:1003A000AF92BF92CF92DF92EF92FF920F931F9383
:1003B000CF93DF936C017B018B01040F151FEB01C1
:1003C0005E01AE18BF08C017D10759F06991D60178
:1003D000ED91FC910190F081E02DC6010995892BEA
:1003E00079F7C501DF91CF911F910F91FF90EF90A9
:1003F000DF90CF90BF90AF900895FC01538D448D56
:10040000252F30E0842F90E0821B930B541710F0BF
:10041000CF96089501970895FC01918D828D9817CC
:1004200061F0A28DAE0FBF2FB11D5D968C91928DA4
:100430009F5F9F73928F90E008958FEF9FEF0895D5
:10044000FC01918D828D981731F0828DE80FF11D9E
:10045000858D90E008958FEF9FEF0895FC01918DB9
:10046000228D892F90E0805C9F4F821B91098F73B2
:10047000992708958CE691E00E942E0221E0892BB5
:1004800009F420E0822F089580E090E0892B29F084
:100490000E943A0281110C9400000895FC01A48D81
:1004A000A80FB92FB11DA35ABF4F2C91848D90E096
:1004B00001968F739927848FA689B7892C93A08979
:1004C000B1898C91837080648C93938D848D981303
:1004D00006C00288F389E02D80818F7D8083089596
:1004E000EF92FF920F931F93CF93DF93EC0181E084
:1004F000888F9B8D8C8D98131AC0E889F98980812B
:1005000085FF15C09FB7F894EE89FF896083E8895D
:10051000F98980818370806480839FBF81E090E04F
:10052000DF91CF911F910F91FF90EF900895F62EDC
:100530000B8D10E00F5F1F4F0F731127E02E8C8D76
:100540008E110CC00FB607FCFACFE889F9898081BB
:1005500085FFF5CFCE010E944E02F1CFEB8DEC0F5F
:10056000FD2FF11DE35AFF4FF0829FB7F8940B8FD8
:10057000EA89FB8980818062CFCF0F931F93CF934D
:10058000DF938C01D0E0C0E0F801EC0FFD1F649117
:10059000662341F08CE691E00E947002892B11F0F5
:1005A0002196F2CFCE01DF91CF911F910F91089547
:1005B000CF93DF93EC01888D8823B9F0AA89BB899A
:1005C000E889F9898C9185FD03C0808186FD0DC085
:1005D0000FB607FCF7CF8C9185FFF2CF808185FFA6
:1005E000EDCFCE010E944E02E9CFDF91CF91089569
:1005F000FC0101900020E9F73197AF01481B590B2E
:10060000BC018CE691E00C94D0018F929F92AF9246
:10061000BF920F931F93CF93DF93CDB7DEB7A19710
:100620000FB6F894DEBF0FBECDBF19A2423008F45A
:100630004AE08E010F5D1F4F842E912CB12CA12C0E
:10064000A50194010E942308E62FB901CA01EA30EE
:10065000F4F4E05DD801EE938D01232B242B252BA0
:1006600079F790E080E0109719F0CD010E94F80230
:10067000A1960FB6F894DEBF0FBECDBFDF91CF912C
:100680001F910F91BF90AF909F908F900895E95C5C
:10069000E1CFCF92DF92EF92FF92CF93DF936B0186
:1006A0007C016DE28CE691E00E947002EC0166270D
:1006B0007727CB016C197D098E099F094AE00E94BA
:1006C00005038C0F9D1FDF91CF91FF90EF90DF907E
:1006D000CF900895CF9390915A01981709F442C092
:1006E000C82F80935A0180913C0190913D01A091C7
:1006F0003E01B0913F010196A11DB11D80933C01C7
:1007000090933D01A0933E01B0933F01C11106C0FB
:1007100060E088E00E9431011092560182E790E08B
:100720000E94BD02EC2FF0E0EE0FFF1FE45EFE4FD3
:1007300080819181009711F00E94F80288E690E094
:100740000E94BD0260913C0170913D0180913E018B
:1007500090913F014AE00E94050382E291E0CF912F
:100760000C94F802CF9108951F920F920FB60F923A
:1007700011242F933F938F939F93AF93BF938091B7
:10078000640190916501A0916601B091670130917B
:10079000630123E0230F2D3758F50196A11DB11DEC
:1007A000209363018093640190936501A093660197
:1007B000B09367018091680190916901A0916A01ED
:1007C000B0916B010196A11DB11D809368019093BA
:1007D0006901A0936A01B0936B01BF91AF919F91A2
:1007E0008F913F912F910F900FBE0F901F901895F2
:1007F00026E8230F0296A11DB11DD2CF1F920F92A2
:100800000FB60F9211242F933F934F935F936F93E3
:100810007F938F939F93AF93BF93EF93FF93E09159
:100820000201F09103010995FF91EF91BF91AF9102
:100830009F918F917F916F915F914F913F912F91F8
:100840000F900FBE0F901F9018951F920F920FB62A
:100850000F9211242F933F934F935F936F937F9346
:100860008F939F93AF93BF93EF93FF93E09100011A
:10087000F09101010995FF91EF91BF91AF919F9187
:100880008F917F916F915F914F913F912F910F9039
:100890000FBE0F901F9018951F920F920FB60F92D8
:1008A00011242F933F934F935F936F937F938F9375
:1008B0009F93AF93BF93EF93FF938CE691E00E94D9
:1008C0004E02FF91EF91BF91AF919F918F917F91D8
:1008D0006F915F914F913F912F910F900FBE0F90AD
:1008E0001F9018951F920F920FB60F9211242F93FD
:1008F0008F939F93EF93FF93E0917C01F0917D01A3
:100900008081E0918201F091830182FD1BC0908182
:10091000809185018F5F8F7320918601821741F04E
:10092000E0918501F0E0E459FE4F958F80938501B9
:10093000FF91EF919F918F912F910F900FBE0F908C
:100940001F9018958081F4CF1F920F920FB60F92CF
:1009500011248F939F93AF93BF9380915B019091EC
:100960005C01A0915D01B0915E010196A11DB11DD8
:1009700080935B0190935C01A0935D01B0935E0155
:10098000BF91AF919F918F910F900FBE0F901F90CD
:100990001895CF93DF931F92CDB7DEB7789484B5C7
:1009A000826084BD84B5816084BD85B5826085BD6B
:1009B00085B5816085BD80916E00816080936E00F9
:1009C00010928100809181008260809381008091EB
:1009D000810081608093810080918000816080939C
:1009E00080008091B10084608093B1008091B0005C
:1009F00081608093B00080917A00846080937A0057
:100A000080917A00826080937A0080917A00816080
:100A100080937A0080917A00806880937A001092A7
:100A2000C100E0917C01F0917D0182E08083E09142
:100A30007801F09179011082E0917A01F0917B01C7
:100A40008FEC808310928401E0918001F09181010C
:100A500086E08083E0917E01F0917F01808180615A
:100A60008083E0917E01F0917F01808188608083A6
:100A7000E0917E01F0917F01808180688083E09128
:100A80007E01F0917F0180818F7D808361E08DE028
:100A90000E945F0161E089E00E945F0161E088E0FF
:100AA0000E945F0162E082E00E945F0162E084E0F8
:100AB0000E945F0160E08DE00E94310160E088E00B
:100AC0000E94310161E089E00E945F0160E089E0FD
:100AD0000E943101F89410928000109281001092CF
:100AE00085001092840089EF90E0909389008093B4
:100AF00088008091810088608093810080918100CE
:100B000083608093810080916F00826080936F008A
:100B1000789481EC91E090930101809300018091A1
:100B200069008C7F826080936900E89A8EEA90E089
:100B30000E94BD0282E291E00E94F80289E790E003
:100B40000E94BD0282E291E00E94F80288248A9409
:100B500033E0932EA12CB12C4DE5242E41E0342E10
:100B600000E010E080914801882309F449C0F8941E
:100B700080914801C0904401D0904501E090460129
:100B8000F09047011092480178948823C9F10E949F
:100B9000B501409040015090410160904201709039
:100BA00043019B01AC012419350946095709290164
:100BB0003A0132E3431651046104710408F1609371
:100BC000400170934101809342019093430182E080
:100BD0000E940801892BA1F480915A01811161C101
:100BE00081E00E946A0385EC90E00E94BD024AE029
:100BF000C701B6010E94050382E291E00E94F8025B
:100C00000E94B501C0904901D0904A01E0904B018B
:100C1000F0904C019B01AC012C193D094E095F0974
:100C200069017A0134E1C316D104E104F10408F446
:100C30003EC06093490170934A0180934B019093A9
:100C40004C0140E440937C0080917A008064809362
:100C50007A0080917A0086FDFCCF20917800309157
:100C600079003093590120935801AFEFB0E00E9412
:100C70004508A50194010E940408F22EE22E20935B
:100C8000570161E089E00E945F01F1100CC160E052
:100C900089E00E94310184E00E94080120915A01FC
:100CA000213029F4892B19F482E00E946A030E9402
:100CB000B501C0905A01C9822C2D233008F03CC1E7
:100CC000EC2DF0E0EE0FFF1FEA5EFE4F2081318138
:100CD00040904E0150904F01609050017090510132
:100CE0006B017C01C418D508E608F7082601370116
:100CF00050E040E0421653066406750688F06093A3
:100D00004E0170934F018093500190935101609177
:100D10004D0181E0682760934D018DE00E94310113
:100D20000E94B5012981223009F409C18091560140
:100D3000882331F01092560160E088E00E94310172
:100D40000E94B5016B017C0180915F01909160016F
:100D5000A0916101B0916201A7019601281B390B96
:100D60004A0B5B0BDA01C901883E9340A105B1052E
:100D700008F47CC0C0925F01D0926001E0926101F2
:100D8000F0926201F89440905B0150905C01609099
:100D90005D0170905E0178948AE091E00E94BD024E
:100DA0004AE0C701B6010E9405038EEF90E00E9461
:100DB000BD024AE0C301B2010E94050389EF90E041
:100DC0000E94BD020E9490014AE00E94050381EF4B
:100DD00090E00E94BD02E0915A01E33008F0DCC0CF
:100DE000F0E0EE0FFF1FE45EFE4F808191810097DF
:100DF00011F00E94F80288EE90E00E94BD0260911E
:100E000058017091590190E080E04AE00E9405038A
:100E100082EE90E00E94BD026091570170E090E088
:100E200080E04AE00E94050389ED90E00E94BD0247
:100E300082E00E940801BC01990F880B990B97FF73
:100E4000AEC00E94490380ED90E00E94BD0284E0A4
:100E50000E940801BC01990F880B990B97FFA3C052
:100E60000E94490382E291E00E94F8020E949001F0
:100E70006B017C010E9490016C197D098E099F090C
:100E8000683E734081059105A8F30115110509F429
:100E900069CE0E943A02882309F464CE0E940000C1
:100EA00061CE80E09ECE5FEFF51202C061E0F0CE31
:100EB000F1018491833021F138F48130B9F082302E
:100EC000D1F0E7FCF3CFE3CE873031F1883061F128
:100ED0008430B9F7809180008062809380008F2DEC
:100EE00090E090938B0080938A00D5CE84B5806883
:100EF00084BDF7BCD0CE84B5806284BDF8BCCBCEB7
:100F0000809180008068809380008F2D90E0909386
:100F1000890080938800BFCE8091B0008068809364
:100F2000B000F092B300B7CE8091B00080628093A1
:100F3000B000F092B400AFCE24EF31E0C9CEC09043
:100F40005201D0905301E0905401F09055019B0163
:100F5000AC012C193D094E095F0969017A0138E29B
:100F6000C316D104E104F10408F4EACE60935201FF
:100F700070935301809354019093550160915601F1
:100F800081E068276093560188E00E9431018FE577
:100F900090E00197F1F7D4CE85E291E02ACF4AE0C4
:100FA0000E94050350CF4AE00E9405035BCFECE6A8
:100FB000F1E01382128288EE93E0A0E0B0E0848337
:100FC0009583A683B78388E091E09183808385EC45
:100FD00090E09587848784EC90E09787868780EC03
:100FE00090E0918B808B81EC90E0938B828B82ECF4
:100FF00090E0958B848B86EC90E0978B868B118E9E
:10100000128E138E148E0895052E97FB1EF40094F5
:101010000E941B0857FD07D00E94230807FC03D03D
:101020004EF40C941B0850954095309521953F4FF8
:101030004F4F5F4F089590958095709561957F4FC4
:101040008F4F9F4F0895A1E21A2EAA1BBB1BFD01D3
:101050000DC0AA1FBB1FEE1FFF1FA217B307E40797
:10106000F50720F0A21BB30BE40BF50B661F771FEF
:10107000881F991F1A9469F76095709580959095CF
:101080009B01AC01BD01CF010895A29FB001B39FA8
:10109000C001A39F700D811D1124911DB29F700D81
:1010A000811D1124911D0895EE0FFF1F0590F491ED
:0810B000E02D0994F894FFCF34
:1010B800CF01CF01000000007002D001FD01D8026D
:1010C8002E020C022002BC02FA0050002D01300151
:1010D80036010D0A00554E4B4E4F574E00444953AA
:0C10E80041524D454400414C41524D0026
:00000001FF
